:03000000020033C8
:09000B00BE00030203000205001F
:0D0033007581701201001201097E0080FE2F
:100100007590007580FF7F0122758901758CFF75E0
:090110008AFA75A8827588102294
:10020000758C3C758A0B7D010EC3EE946440027EB2
:100210000032758C3C758A0B7D020EC3EE94A040B3
:10022000027E0032758C3C758A0B7D040EC3EE9401
:100230001440027E00327590217F0280C3759022A7
:100240007F042082027F102081027F2080D675905B
:10025000217F0280BD75900C7F0880A47590147F6B
:10026000012082027F402080027F8080B775900C41
:100270007F08809E7590247F042081027F200202E7
:0E028000007590247F012080027F8002020022
:10030000BF0103020236BF020302023DBF04030223
:100310000255BF080302025CBF1003020274BF2033
:100320000302026DBF4003020281BF80DF02024E62
:0F050000BD0103020200BD020302021202022427
:00000001FF
